:100000000C9462000C948A000C948A000C948A0070
:100010000C948A000C948A000C948A000C948A0038
:100020000C948A000C948A000C948A000C948A0028
:100030000C948A000C948A000C948A000C948A0018
:100040000C94B7020C948A000C9427030C940103BF
:100050000C948A000C948A000C948A000C948A00F8
:100060000C948A000C948A000000000024002700F1
:100070002A0000000000250028002B0000000000DE
:1000800023002600290004040404040404040202DA
:100090000202020203030303030301020408102007
:1000A0004080010204081020010204081020000012
:1000B0000008000201000003040700000000000027
:1000C00000008C0611241FBECFEFD8E0DEBFCDBFED
:1000D00011E0A0E0B1E0ECE4F4E102C005900D9283
:1000E000A63BB107D9F722E0A6EBB1E001C01D9213
:1000F000A037B207E1F710E0C2E6D0E004C02197D4
:10010000FE010E942C08C136D107C9F70E9459038D
:100110000C94240A0C940000833081F028F4813080
:1001200099F08230A9F008958730A9F08830C9F09D
:100130008430B1F4809180008F7D03C08091800075
:100140008F7780938000089584B58F7784BD08955C
:1001500084B58F7DFBCF8091B0008F778093B00006
:1001600008958091B0008F7DF9CFCF93DF93282F32
:1001700030E0F901E255FF4F8491F901E656FF4F57
:10018000D491F901EA57FF4FC491CC23A1F081111A
:100190000E948C00EC2FF0E0EE0FFF1FE458FF4FA1
:1001A000A591B491EC91ED2381E090E009F480E019
:1001B000DF91CF91089580E090E0FACF1F93CF9325
:1001C000DF93282F30E0F901E255FF4F8491F901C8
:1001D000E656FF4FD491F901EA57FF4FC491CC2363
:1001E000A9F0162F81110E948C00EC2FF0E0EE0F89
:1001F000FF1FEE58FF4FA591B4918FB7F894EC9183
:10020000111108C0D095DE23DC938FBFDF91CF9111
:100210001F910895DE2BF8CF3FB7F8948091CB0162
:100220009091CC01A091CD01B091CE0126B5A89BB3
:1002300005C02F3F19F00196A11DB11D3FBFBA2F78
:10024000A92F982F8827BC01CD01620F711D811D38
:10025000911D42E0660F771F881F991F4A95D1F7BD
:1002600008958F929F92AF92BF92CF92DF92EF92BA
:10027000FF924B015C010E940C016B017C010E940A
:100280000C016C197D098E099F09683E7340810538
:100290009105A8F321E0821A9108A108B10888EE1F
:1002A000C80E83E0D81EE11CF11C81149104A10446
:1002B000B10429F7FF90EF90DF90CF90BF90AF90FF
:1002C0009F908F900895AF92BF92CF92DF92EF925E
:1002D000FF920F931F93CF93DF936C017B018B01F0
:1002E000040F151FEB015E01AE18BF08C017D10740
:1002F00059F06991D601ED91FC910190F081E02DCA
:10030000C6010995892B79F7C501DF91CF911F911E
:100310000F91FF90EF90DF90CF90BF90AF90089536
:10032000FC01538D448D252F30E0842F90E0821BFB
:10033000930B541710F0CF96089501970895FC0180
:10034000918D828D981761F0A28DAE0FBF2FB11DD8
:100350005D968C91928D9F5F9F73928F90E0089530
:100360008FEF9FEF0895FC01918D828D981731F0EA
:10037000828DE80FF11D858D90E008958FEF9FEF3E
:100380000895FC01918D228D892F90E0805C9F4F14
:10039000821B91098F73992708958FEC91E00E9439
:1003A000C10121E0892B09F420E0822F089580E02B
:1003B00090E0892B29F00E94CD0181110C9400005E
:1003C0000895FC01A48DA80FB92FB11DA35ABF4FEA
:1003D0002C91848D90E001968F739927848FA68944
:1003E000B7892C93A089B1898C91837080648C9398
:1003F000938D848D981306C00288F389E02D808147
:100400008F7D80830895EF92FF920F931F93CF9378
:10041000DF93EC0181E0888F9B8D8C8D98131AC03F
:10042000E889F989808185FF15C09FB7F894EE8926
:10043000FF896083E889F989808183708064808383
:100440009FBF81E090E0DF91CF911F910F91FF90CE
:10045000EF900895F62E0B8D10E00F5F1F4F0F7376
:100460001127E02E8C8D8E110CC00FB607FCFACF31
:10047000E889F989808185FFF5CFCE010E94E101ED
:10048000F1CFEB8DEC0FFD2FF11DE35AFF4FF08202
:100490009FB7F8940B8FEA89FB8980818062CFCF68
:1004A000CF93DF93EC01888D8823B9F0AA89BB89AB
:1004B000E889F9898C9185FD03C0808186FD0DC096
:1004C0000FB607FCF7CF8C9185FFF2CF808185FFB7
:1004D000EDCFCE010E94E101E9CFDF91CF910895E8
:1004E00042E050E06EE271E08FEC91E00C94630129
:1004F000CF93DF93FC0101900020E9F73197AF0122
:10050000481B590BBC018FEC91E00E946301EC0188
:100510000E9470028C0F9D1FDF91CF9108950F9361
:100520001F93CF93DF93EC0188819981009759F055
:100530002A813B812617370730F081E0DF91CF9188
:100540001F910F9108958B016F5F7F4F0E94570994
:10055000009759F0998388831B830A832C813D81FE
:10056000232B59F7FC011082E8CF80E0E7CF1F92E0
:100570000F920FB60F9211242F933F938F939F9357
:10058000AF93BF938091C7019091C801A091C90119
:10059000B091CA013091C60123E0230F2D3758F5E1
:1005A0000196A11DB11D2093C6018093C7019093B0
:1005B000C801A093C901B093CA018091CB01909169
:1005C000CC01A091CD01B091CE010196A11DB11D2C
:1005D0008093CB019093CC01A093CD01B093CE0139
:1005E000BF91AF919F918F913F912F910F900FBE2F
:1005F0000F901F90189526E8230F0296A11DB11D9C
:10060000D2CF1F920F920FB60F9211242F933F93C8
:100610004F935F936F937F938F939F93AF93BF930A
:10062000EF93FF938FEC91E00E94E101FF91EF9136
:10063000BF91AF919F918F917F916F915F914F91FA
:100640003F912F910F900FBE0F901F9018951F9202
:100650000F920FB60F9211242F938F939F93EF93C6
:10066000FF93E091DF01F091E0018081E091E501ED
:10067000F091E60182FD1BC090818091E8018F5FBF
:100680008F732091E901821741F0E091E801F0E0D9
:10069000E153FE4F958F8093E801FF91EF919F9179
:1006A0008F912F910F900FBE0F901F901895808102
:1006B000F4CFCF93DF93CDB7DEB76A970FB6F89438
:1006C000DEBF0FBECDBF789484B5826084BD84B593
:1006D000816084BD85B5826085BD85B5816085BD3D
:1006E00080916E00816080936E00109281008091F5
:1006F000810082608093810080918100816080937D
:100700008100809180008160809380008091B100A1
:1007100084608093B1008091B00081608093B000CC
:1007200080917A00846080937A0080917A00826060
:1007300080937A0080917A00816080937A00809122
:100740007A00806880937A001092C100E091DF0106
:10075000F091E00182E08083E091DB01F091DC0127
:100760001082E091DD01F091DE018FEC8083109228
:10077000E701E091E301F091E40186E08083E091FC
:10078000E101F091E201808180618083E091E101EB
:10079000F091E201808188608083E091E101F09135
:1007A000E201808180688083E091E101F091E201C3
:1007B00080818F7D80832EE131E0A6E2B1E08D91D2
:1007C0009D919927FC01E656FF4F44918A579F4F10
:1007D000FC0184918823C9F090E0880F991FFC01E7
:1007E000E859FF4F65917491FC01EE58FF4F059158
:1007F00014919FB7F894FB018081409584238083F6
:10080000F8018081842380839FBFF90181919191B8
:100810009F019927FC01E656FF4F64918A579F4F2D
:10082000FC0184918823A1F090E0880F991FFC01BE
:10083000E859FF4F45915491FC01EE58FF4F8591C7
:1008400094918FB7F894FA019081962B90838FBF83
:10085000F1E0AE32BF0709F0B2CF80E480937C00B4
:1008600080917A00806480937A0080917A0086FD7E
:10087000FCCF6091780070917900072E000C880BF6
:10088000990B611571058105910511F00E945407BE
:10089000B4E02B2E312C412C512C8E010F5F1F4FB9
:1008A00066246394712C809100019091010101975D
:1008B00009F04BC00E940507E090C201F090C3010F
:1008C000EE0CFF1C97012A543E4F7901A2019101C1
:1008D0000E949207D7016D937C9381E391E00E947F
:1008E0007802F6EBCF2EF1E0DF2EF12CE12C809197
:1008F000C2019091C3018E159F050CF1D601ED91B7
:10090000FD916D01EE0FFF1FE25EFE4FB08061E0D2
:100910008B2D0E94DE006EEE72E080E090E00E947F
:10092000310160E08B2D0E94DE006EEE72E080E00F
:1009300090E00E943101BFEFEB1AFB0AD8CFE2E052
:10094000F0E0F0930101E0930001809100019091AB
:100950000101029709F0A5C11092C5011092C401CE
:100960008BE391E00E94780226EB31E03A8F298FE9
:10097000F12CE12C8091C4012091C2013091C3017E
:100980002E153F050CF429C1811127C180E591E0A6
:100990000E94780246E2A42E41E0B42ED12CC12C54
:1009A000D5019C9011968C90B2E0AB0EB11C892DB4
:1009B0000E94B500019709F09FC11C8A1B8A1E8AFC
:1009C0001D8A188E1F8A4AE0B801892D982D0E9431
:1009D0005D07F80101900020E9F731975F01A01A47
:1009E000B10AB501CE0143960E948F022B893C8942
:1009F000811164C12115310519F0C9010E94CE0889
:100A00001C8A1B8A188E1F8A1E8A1D8A1A821982C6
:100A10001C821B821E821D8262E170E0C8010E945E
:100A20008F0229813A81811150C12115310519F0B8
:100A3000C9010E94CE081A8219821E821D821C8260
:100A40001B828B889C888114910409F448C1AF886B
:100A5000B88CA114B104B1F08D819E81A80EB91E8D
:100A6000B501C8010E948F02882309F438C1298189
:100A70003A818D819E81B401820F931F0E941D0ACD
:100A8000BE82AD824D815E8169817A818FEC91E079
:100A90000E9463010E94700289819A81009711F07F
:100AA0000E94CE088B899C89009711F00E94CE0885
:100AB00066E970E080E090E00E943101F601EE0FFF
:100AC000FF1FEA5DFE4FB0808B2D0E94B50001979D
:100AD000D9F368EC70E080E090E00E943101E98D8C
:100AE000FA8D81919191FA8FE98FC816D90609F094
:100AF0000CC185E0E816F10409F04FC027E0A22EF2
:100B0000B12C9EE1C92E91E0D92ED6019C90B2E085
:100B1000CB0ED11C61E0892D0E94DE0066E970E0F9
:100B200080E090E00E94310160E0892D0E94DE00AB
:100B300066E970E080E090E00E943101E6E2F1E0D9
:100B4000EC15FD0511F7F1E0AF1AB108D1F61092DE
:100B5000C4011092C3011092C2011092B701109209
:100B6000B6011092B9011092B8011092BB01109217
:100B7000BA011092BD011092BC011092BF011092F7
:100B8000BE011092C1011092C001709201016092E9
:100B9000000185E891E00E9478028091C201909165
:100BA000C301E816F906A1F488E991E00E947802F1
:100BB00021E02093C5018091C2019091C30101966B
:100BC0009093C3018093C201709201016092000171
:100BD0008091C501882309F49BC08091C4018823BA
:100BE00009F45FC083EA91E00E94780284E0E82E75
:100BF000F12C61E087E00E94DE0061E086E00E9467
:100C0000DE0061E085E00E94DE0061E084E00E9499
:100C1000DE0066E970E080E090E00E94310160E073
:100C200084E00E94DE0060E085E00E94DE0060E07B
:100C300086E00E94DE0060E087E00E94DE0066E958
:100C400070E080E090E00E94310181E0E81AF10854
:100C500081F61092C4011092C3011092C2017092E9
:100C60000101609200011092B7011092B60110923A
:100C7000B9011092B8011092BB011092BA01109202
:100C8000BD011092BC011092BF011092BE011092E2
:100C9000C1011092C00168EB7BE080E090E00E940F
:100CA0003101A0E0B0E0AB2B09F4FDCD0E94CD01F5
:100CB000882309F4F8CD0E940000F2CDB88EAF8AE7
:100CC000B801C9010E941D0AA1CE82E190E09E8375
:100CD0008D8362E771E0C9010E941D0AB2CE89814D
:100CE0009A81009711F00E94CE081A8219821E8202
:100CF0001D821C821B82C6CEFFEFCF1ADF0A24E0C2
:100D0000C216D10409F04CCE45CE31E03093C40177
:100D10003FEFE31AF30A2ECEEFECF1E013821282DA
:100D200088EE93E0A0E0B0E084839583A683B78348
:100D300080E191E09183808385EC90E095878487C2
:100D400084EC90E09787868780EC90E0918B808B95
:100D500081EC90E0938B828B82EC90E0958B848B7E
:100D600086EC90E0978B868B118E128E138E148EEC
:100D700008958F929F92AF92BF92CF92DF92EF929F
:100D8000FF92CF93DF93EC01688179818A819B8107
:100D9000611571058105910521F464E279ED8BE51A
:100DA00097E02DE133EF41E050E00E9492074901C6
:100DB0005A019B01AC01A7EAB1E40E94B1076B01A3
:100DC0007C01ACEEB4EFA50194010E94BF07C60EF2
:100DD000D71EE81EF91EF7FE06C081E0C81AD1082A
:100DE000E10880E8F80AC882D982EA82FB82C7015A
:100DF000B6019F77DF91CF91FF90EF90DF90CF907A
:100E0000BF90AF909F908F9008958F929F92AF92D6
:100E1000BF92CF92DF92EF92FF92609102017091A8
:100E2000030180910401909105016115710581050F
:100E3000910521F464E279ED8BE597E02DE133EF44
:100E400041E050E00E94920749015A019B01AC0128
:100E5000A7EAB1E40E94B1076B017C01ACEEB4EFEC
:100E6000A50194010E94BF07C60ED71EE81EF91EF9
:100E7000F7FE06C081E0C81AD108E10880E8F80A48
:100E8000C0920201D0920301E0920401F0920501A8
:100E9000C701B6019F77FF90EF90DF90CF90BF9092
:100EA000AF909F908F90089560930201709303011B
:100EB00080930401909305010895BB274A3031F4D3
:100EC000992322F4BDE2909581959F4F0C94690778
:100ED000BB27FB015527AA27880F991FAA1FA41714
:100EE00010F0A41B83955051B9F7A05DAA3308F008
:100EF000A95DA193009779F7B111B1931192CB013C
:100F00000C948207DC01FC01672F71917723E1F7D4
:100F1000329704C07C916D9370836291AE17BF07C6
:100F2000C8F30895052E97FB1EF400940E94A907AC
:100F300057FD07D00E94FB0707FC03D04EF40C942A
:100F4000A90750954095309521953F4F4F4F5F4FE2
:100F5000089590958095709561957F4F8F4F9F4F25
:100F600008950E941D08A59F900DB49F900DA49F09
:100F7000800D911D11240895B7FF0C94B1070E94B4
:100F8000B107821B930B08952F923F924F925F926D
:100F90006F927F928F929F92AF92BF92CF92DF9289
:100FA000EF92FF920F931F93CF93DF93CDB7DEB7EE
:100FB000CA1BDB0B0FB6F894DEBF0FBECDBF099482
:100FC0002A88398848885F846E847D848C849B84D9
:100FD000AA84B984C884DF80EE80FD800C811B81E7
:100FE000AA81B981CE0FD11D0FB6F894DEBF0FBE16
:100FF000CDBFED010895A1E21A2EAA1BBB1BFD0176
:101000000DC0AA1FBB1FEE1FFF1FA217B307E407E7
:10101000F50720F0A21BB30BE40BF50B661F771F3F
:10102000881F991F1A9469F760957095809590951F
:101030009B01AC01BD01CF010895A29FB001B39FF8
:10104000C001A39F700D811D1124911DB29F700DD1
:10105000811D1124911D0895EE0FFF1F0590F4913D
:10106000E02D09940F931F93CF93DF938230910566
:1010700010F482E090E0E0916E02F0916F0230E0B7
:1010800020E0B0E0A0E0309799F42115310509F493
:101090004AC0281B390B24303105D8F58A819B8141
:1010A0006115710589F1FB0193838283FE0111C0F3
:1010B000408151810281138148175907E0F0481798
:1010C000590799F4109761F012960C9312971396A2
:1010D0001C933296CF01DF91CF911F910F9108950C
:1010E00000936E0210936F02F4CF2115310551F079
:1010F0004217530738F0A901DB019A01BD01DF0156
:10110000F801C1CFEF01F9CF90936F0280936E0287
:10111000CDCFFE01E20FF31F81939193225031094D
:1011200039832883D7CF20916C0230916D02232B15
:1011300041F4209108013091090130936D02209310
:101140006C0220910601309107012115310541F40F
:101150002DB73EB740910A0150910B01241B350B6E
:10116000E0916C02F0916D02E217F307A0F42E1BE0
:101170003F0B2817390778F0AC014E5F5F4F2417FB
:10118000350748F04E0F5F1F50936D0240936C027D
:10119000819391939FCFF0E0E0E09CCFCF93DF93DA
:1011A0000097E9F0FC01329713821282A0916E023F
:1011B000B0916F02ED0130E020E01097A1F42081A2
:1011C0003181820F931F20916C0230916D0228179C
:1011D000390709F061C0F0936D02E0936C02DF9172
:1011E000CF910895EA01CE17DF07E8F54A815B81C8
:1011F0009E0141155105B1F7E901FB83EA8349914D
:101200005991C40FD51FEC17FD0761F480819181BE
:101210000296840F951FE9019983888382819381C7
:101220009B838A83F0E0E0E012968D919C91139766
:101230000097B9F52D913C911197CD010296820F3F
:10124000931F20916C0230916D022817390739F6EF
:10125000309751F510926F0210926E02B0936D02AA
:10126000A0936C02BCCFD383C28340815181840F91
:10127000951FC817D90761F44E5F5F4F8881998128
:10128000480F591F518340838A819B8193838283B6
:101290002115310509F0B0CFF0936F02E0936E0293
:1012A0009ECFFD01DC01C0CF13821282D7CFB0E008
:1012B000A0E0EDE5F9E00C94C6078C01009751F42D
:1012C000CB010E9432088C01C801CDB7DEB7E0E146
:1012D0000C94E207FC01E60FF71F9C012250310934
:1012E000E217F30708F49DC0D901CD91DC91119765
:1012F000C617D70798F0C530D10530F3CE01049753
:101300008617970708F3C61BD70B2297C193D19373
:101310006D937C93CF010E94CE08D6CF5B01AC1AAF
:10132000BD0A4C018C0E9D1EA0916E02B0916F0201
:10133000512C412CF12CE12C109731F580916C024D
:1013400090916D028815990509F05CC04616570604
:1013500008F058C08091060190910701009741F470
:101360008DB79EB740910A0150910B01841B950BDC
:10137000E817F90708F055C0F0936D02E0936C028E
:10138000F90171836083A0CF8D919C911197129682
:101390006C90129713967C901397A815B90559F580
:1013A0006C0142E0C40ED11CCA14DB0420F1AC0174
:1013B0004A195B09DA011296159780F062827382EE
:1013C00051834083D9016D937C93E114F10471F052
:1013D000D7011396FC93EE93129776CF22968C0F3B
:1013E0009D1FF90191838083F301EFCFF0936F028A
:1013F000E0936E0269CF4816590608F42C017D016E
:10140000D3019ACFCB010E9432087C01009749F0AA
:10141000AE01B8010E94140AC8010E94CE088701DB
:1014200053CF10E000E050CFFB01DC0102C001907F
:101430000D9241505040D8F70895FB01DC01019016
:0C1440000D920020E1F70895F894FFCF12
:10144C00010001000000000070028000000000009C
:10145C000302630190015002C1019F01B301070017
:10146C000600050004000D000C000B000A000D0A1C
:10147C000053686F77204C65647300466173652078
:10148C007072656D69206920626F74746F6E69008B
:10149C00536F6E6F20656E747261746F206E656C25
:1014AC006C61206675632072656164427574746F3B
:1014BC006E00426F74746F6E65207072656D75741A
:1014CC006F3A2020004861692076696E746F20693C
:1014DC006C2067696F636F004E657874204C65767D
:1014EC00656C0048616920706572736F20696C20AF
:0614FC0067696F636F00D9
:00000001FF
